:0400000008EF0BF00A
:1000080000C01AF001C019F002C018F003C017F0C0
:1000180004C016F005C015F0E1CF21F0E2CF22F0C0
:10002800E9CF1FF0EACF20F0F5CF1EF0F8CF1BF094
:10003800F7CF1CF0F6CF1DF06EEC0AF01EC0F5FFEE
:100048001BC0F8FF1CC0F7FF1DC0F6FF1AC000F068
:1000580019C001F018C002F017C003F016C004F070
:1000680015C005F01FC0E9FF20C0EAFF21C0E1FF6D
:0600780022C0E2FF1100AE
:10007E00000E056E020E066E7DC003F0000E046EBD
:10008E000336043603900336043603907EC000F028
:10009E00000E016E0036013600900050032601500E
:1000AE00042203C001F004C002F0013601900236B2
:1000BE0001360190023601C003F002C004F0043292
:1000CE000332049E04BC048E04320332049E04BC2C
:1000DE00048E03C000F004C001F00036009001361B
:1000EE00003600900136055000260650012200C051
:1000FE0005F001C006F000C0E1FF01C0E2FFE69E80
:10010E0000017E51000A12E17DC000F0000E016E6A
:10011E00003600900136290E0024E16E000E0120FB
:10012E00E26E05C0E6FF06C0E6FF11D07DC000F00E
:10013E00000E016E0036009001362D0E0024E16E89
:10014E00000E0120E26E05C0E6FF06C0E6FF05C008
:10015E00E1FF06C0E2FFE69C040E0524E16E000EF0
:08016E000620E26EE68C12008F
:0E017600800E00017D11006E00C026F0120008
:100184007DC023F07EC024F07FC027F080C028F01B
:10019400800E00018111006E008000C026F0120064
:1001A4007DC023F07EC024F07FC025F080C027F0FE
:1001B40081C028F0800E00018211006E00C026F07C
:0201C400120027
:1001C60020C201F01F0E01160150010AD8A4120028
:1001D60002012451000AD8A412002151060A38E16E
:1001E6002DD03250010A13E1760E00017D6F160EF6
:1001F6007E6F000E7F6F120E7D27000E7E237F23FB
:10020600090E806F000E816F400E826FC8DF20D00E
:100216003250010A0EE100019F0E7D6F160E7E6FB1
:10022600000E7F6F210E806F000E816F400E826F71
:10023600B6DF0ED000017D6B9BDF0AD00201235191
:10024600210ACFE02351220AE3E02351230AF2E0F8
:1002560020C201F0600E0116050E006E005004E08B
:100266000132019EFF0FFBD70150010AD8A41200EC
:1002760027D039D038D0550E00017D6F000E7E6F25
:10028600010E7F6F000E806F400E816F78DF2BD0DE
:1002960000017D6B6DDF23C255F025D00001540EA1
:1002A6007D6F000E7E6F010E7F6F000E806F816B7B
:1002B60066DF19D000017D6B5BDF22C254F013D0DC
:1002C60002012151010AD5E02151090AD3E0215149
:1002D600020AD1E021510A0ADBE02151030ADEE0DD
:0802E60021510B0AE7E01200B0
:1002EE00530EE16E0F0EE26E00017851E126D8B08A
:1002FE00E22A79C0E6FF79A504D078C07DF07E6B46
:10030E00B7DE79A305D078C07DF0010E7E6FB0DE2A
:02031E001200CB
:1003200000017951000A12E078C000F0000E016E61
:100330000036009001362D0E0024E96E000E0120DB
:10034000EA6EEECF04F0EECF05F011D078C000F0E9
:10035000000E016E003600900136290E0024E96E71
:10036000000E0120EA6EEECF04F0EECF05F0020E93
:100370000424E16E000E0520E26E7AC0E6FF7BC029
:10038000E6FF010E0424E16E000E0520E26E7CC043
:10039000E6FF04C0E9FF05C0EAFFEECF00F004C0AD
:1003A000E1FF05C0E2FF400E0014E66E04C0E9FF65
:1003B00005C0EAFFEECF00F004C0E1FF05C0E2FF98
:1003C000880E0010E66E7951000A1BE078C000F03C
:1003D000000E016E0036009001362D0E0024026ED4
:1003E000000E0120036E02C0E9FF03C0EAFF040E05
:1003F000EE18006E02C0E1FF03C0E2FF00C0E6FF9E
:100400001AD078C000F0000E016E00360090013660
:10041000290E0024026E000E0120036E02C0E9FFC7
:1004200003C0EAFF040EEE18006E02C0E1FF03C035
:10043000E2FF00C0E6FF04C000F005C001F01200BA
:10044000315215E0010E0001786F1E0E796F4FDFFB
:10045000010E786F796B3CC07AF03DC07BF0400EA6
:100460007C6F5EDF00C04AF001C04BF014D0000189
:10047000010E786F1E0E796F3ADF010E786F796B7F
:100480003CC07AF03DC07BF0400E7C6F49DF00C07D
:080490004AF001C04BF012001C
:08049800315201E094DE120074
:1004A00072C002F073C003F075C000F076C001F0B6
:1004B000010E0001755F000E765B0050011009E02F
:1004C00002C0E1FF03C0E2FF74C0E6FF024A032A54
:0404D000EBD7120054
:1004D4000CD0B4DF3CD03BD0DDDF39D038D037D0BE
:1004E40036D035D0000033D032D0000E000173195D
:1004F40002E1010E7219EDE0000E731902E1020E21
:100504007219E9E0000E731902E1030E7219E4E0B6
:100514007351000A02E1730E7219E0E07351000A8C
:1005240002E1750E7219DBE07351000A02E1740EE8
:100534007219D6E073513F0A02E1FF0E7219D1E03D
:100544007351000A02E1720E7219CCE0CDD7010E8C
:04055400006E120023
:100558000B6A0A6A096A00500402F4CF09F0F3CF63
:1005680008F001500502F4CF0BF0F3CF0AF0005069
:100578000502F3500926F4500A22E86A0B220150BA
:100588000402F3500926F4500A22E86A0B2208C034
:1005980000F009C001F00AC002F00BC003F012001D
:1005A800F250026EF29E0500FF6A0150FE6E005086
:0805B800FD6E02BEF28E12007E
:1005C00002012051800AD8A471D0C00E266E64D0DA
:1005D000D20E006E160E016E000E026E00C023F0E9
:1005E00001C024F002C025F0120E276E000E286E06
:1005F0005DD022C200F0000E016E030E046E000EEC
:10060000056EAADF5D0E0024E96E000E0120EA6E81
:10061000EECF23F0EECF24F0EECF25F0020E232410
:10062000F66E000E2420F76E000E2520F86E0900ED
:10063000F5CF00F00900F5CF01F000C027F001C0B0
:1006400028F034D0030E225D23E222C200F0000E17
:10065000016E030E046E000E056E7EDF3F0E002459
:10066000E96E000E0120EA6EEECF23F0EECF24F00B
:10067000EECF25F023C0F6FF24C0F7FF25C0F8FF1A
:100680000900F5CF00F000C027F0000E286E01D061
:10069000266A0CD0266A0AD02351010A99E0235118
:0E06A000020AA7E02351030ACDE0F4D71200AE
:1006AE00268E540E0001726F0F0E736F746B010E57
:1006BE00756F000E766FEDDE500E726F000E736F5B
:1006CE00746B010E756F000E766FE3DE22C232F090
:1006DE003250000A03E1100E4C6E0FD0200E4C6EFD
:1006EE00010E726F000E736F320E746F000E756F07
:0C06FE00010E766F000E776FE6DE120032
:10070A00000E285C02E1080E275C10E227C003F005
:10071A0028C004F04E50000A03E1010E4E6E05D0C7
:10072A004E50010A02E1020E4E6E04D0080E036E0C
:10073A00000E046E2DC0E1FF2EC0E2FFE6922DC02E
:10074A00E1FF2EC0E2FFE6902DC0E9FF2EC0EAFFCE
:10075A00EECF00F02DC0E1FF2EC0E2FF04500010E2
:10076A00E66E010E2D24E16E000E2E20E26E03C00D
:10077A00E6FF0350275C006E04502858016E00C043
:10078A0027F001C028F0280E526E020E536E26B0D2
:10079A002FD0035004102BE023C0F6FF24C0F7FF2C
:1007AA0025C0F8FF0900F5CF00F052C0E1FF53C0A1
:1007BA00E2FF00C0E6FF524A532A010E2324006ECC
:1007CA00000E2420016E000E2520026E00C023F0C8
:1007DA0001C024F002C025F0010E035C006E000E79
:1007EA000458016E00C003F001C004F0D2D724D02F
:1007FA000350041021E023C0E9FF24C0EAFF52C0DD
:10080A00E1FF53C0E2FFEECFE6FF524A532A010E40
:10081A002324006E000E2420016E00C023F001C0C4
:10082A0024F0010E035C006E000E0458016E00C035
:0A083A0003F001C004F0DCD7120047
:1008440002012251010A0FE120C201F01F0E01161C
:100854000150000A08E1268E2151030A03E1010E2A
:100864004D6E01D04D6A2251000AD8A489D020C20D
:1008740001F01F0E01160150020AD8A481D024C22F
:1008840001F00F0E01160150000AD8B479D0268E5B
:1008940024BF16D024C203F00F0E031603C000F0C9
:1008A400000E016E003600900136290E0024E96E18
:1008B400000E0120EA6EEECF04F0EECF05F015D065
:1008C40024C203F00F0E031603C000F0000E016EE5
:1008D4000036009001362D0E0024E96E000E012032
:1008E400EA6EEECF04F0EECF05F02151030A07E1E2
:1008F40004C0E1FF05C0E2FF840EE66E41D024C2CD
:1009040000F00F0E0016530E026E0F0E036E005011
:100914000226D8B0032A02C0E9FF03C0EAFFEECFE3
:1009240000F0EECF01F0009002C0E1FF03C0E2FF4F
:1009340000C0E6FF01C0E6FF24AF11D004C0E1FF10
:1009440005C0E2FFE66A040E0418006E00C004F05D
:1009540004C0E1FF05C0E2FF400EE66E11D004C002
:10096400E1FF05C0E2FF880EE66E040E0418006E77
:1009740000C004F004C0E1FF05C0E2FFC80EE66E4B
:0209840012005F
:100986000201286B296B42D0268E28814D50010A20
:10099600D8B4288350D0268E4ED0268E24BF16D0AB
:1009A60024C203F00F0E031603C000F0000E016E02
:1009B600003600900136290E0024E96E000E012053
:1009C600EA6EEECF04F0EECF05F015D024C203F0A8
:1009D6000F0E031603C000F0000E016E00360090E5
:1009E60001362D0E0024E96E000E0120EA6EEECFD0
:1009F60004F0EECF05F004C0E9FF05C0EAFFEECF34
:100A060001F001A402D0010E286F15D020C201F01A
:100A16001F0E01160150000AB7E020C201F01F0E9A
:100A260001160150010AB7E020C201F01F0E01169F
:100A36000150020AB2E026AE07D0280E236E020E3F
:0A0A4600246E2680020E276E1200B7
:100A5000586A2DC0E1FF2EC0E2FFE66A040E2D1891
:100A6000E16E2EC0E2FF000EE21AE66A35AE13D048
:100A7000000E006E3B1808E100503A1805E10050E6
:100A8000391802E13850000A05E038C000F039C0DA
:080A900001F08ADD359E120021
:100A9800010E5B24E96E000E5C20EA6EEECF00F0DA
:100AA80000C070F0000E375C03E100017051365C45
:100AB80003E236C070F00BD000017051365C006E56
:100AC800000E3758016E00C036F001C037F0000143
:100AD800716B7051715D1CE2280EE96E020EEA6EB0
:100AE8007151E926D8B0EA2AEECF00F033C0E1FF11
:100AF80034C0E2FF00C0E6FF010E3324006E000E92
:100B08003420016E00C033F001C034F0712BE1D7FE
:100B1800000E006E3750005C02E13650000828E2F3
:100B2800010E5924E16E000E5A20E26E080EE66EA0
:100B3800020E5924E16E000E5A20E26E280EE66E6F
:100B4800020EE66E5BC0E9FF5CC0EAFFEECF00F084
:100B580000BC07D059C0E1FF5AC0E2FFC80EE66EDC
:100B680006D059C0E1FF5AC0E2FF880EE66E2BD0CE
:100B7800010E5924E16E000E5A20E26E080EE66E50
:100B8800020E5924E16E000E5A20E26E200EE66E27
:100B9800020EE66E59C0E1FF5AC0E2FF840EE66E0F
:100BA800000E006E3B1808E100503A1805E10050AD
:100BB800391802E13850000A05E038C000F039C0A1
:080BC80001F0EEDC359E120085
:100BD00020C201F0600E0116050E006E005004E008
:100BE0000132019EFF0FFBD70150000AD8A412006A
:100BF0003ED0268E080E4C6E5DD0E2DC5BD057DD19
:100C000059D0320E236E000E246E2680010E276E00
:100C1000268E50D0B8DE4ED015DE4CD0500E006E71
:100C2000000E016E24510026D8B0012A00C023F026
:100C300001C024F02680010E276E268E3BD0268E22
:100C4000500EE16E000EE26E2451E126D8B0E22A89
:100C500022C2E6FF2FD0020E0001726F000E736FEA
:100C6000746B756B766B776B35DC24D023D0020107
:100C70002151050ABEE02151060ABFE02151090AAF
:100C8000BEE02151080ABDE02151000AC3E0215114
:100C9000010AC2E02151030ABFE021510A0ABEE065
:100CA00021510B0ACCE02151070AD5E021510C0A51
:060CB000DDE0DCD71200BC
:100CB600649826BE49D035AE28D0020E586E010E75
:100CC6002D24E16E000E2E20E26EE66A2DC0E1FFB5
:100CD6002EC0E2FFC80EE66E010E5924E16E000E2C
:100CE6005A20E26E080EE66E020E5924E16E000EE0
:100CF6005A20E26E280EE66E020EE66E59C0E1FF3D
:100D06005AC0E2FFC80EE66E1ED0010E5924E16EEF
:100D1600000E5A20E26E080EE66E020E5924E16EAF
:100D2600000E5A20E26E200EE66E020EE66E59C0E6
:100D3600E1FF5AC0E2FF8C0EE66E2DC0E1FF2EC029
:100D4600E2FF840EE66E7DD035BE7BD0020120AF79
:100D560051D02850275D02E12750265D04E226C2C5
:100D660027F027C228F0CEDC010E586E010E59245A
:100D7600E16E000E5A20E26E080EE66E020E59244F
:100D8600E16E000E5A20E26E200EE66E020EE66E50
:100D960059C0E1FF5AC0E2FF800EE66E4F6A010EAF
:100DA6005B24E16E000E5C20E26E080EE66E020E1B
:100DB6005B24E16E000E5C20E26E200EE66E020EF3
:100DC600E66E5BC0E1FF5CC0E2FF840EE66E010EDC
:100DD6004F6E020E2D24E16E000E2E20E26E280EBE
:100DE600E66E020EE66E2DC0E1FF2EC0E2FFC80ED3
:100DF600E66E27D0020E586E010E2D24E16E000E0F
:100E06002E20E26EE66A2DC0E1FF2EC0E2FFC80E7C
:100E1600E66E010E5924E16E000E5A20E26E080EAF
:100E2600E66E020E5924E16E000E5A20E26E280E7E
:100E3600E66E020EE66E59C0E1FF5AC0E2FFC80E2A
:040E4600E66E120042
:100E4A005850020A02E123DE1ED0FDDD4F50000A8F
:100E5A0019E1010E5924E16E000E5A20E26E080EC5
:100E6A00E66E020E5924E16E000E5A20E26E200E42
:100E7A00E66E020EE66E59C0E1FF5AC0E2FF8C0E22
:080E8A00E66E01D04F6A120070
:100E920000016951000A12E068C000F0000E016E04
:100EA2000036009001362D0E0024E96E000E01205E
:100EB200EA6EEECF04F0EECF05F011D068C000F07C
:100EC200000E016E003600900136290E0024E96EF4
:100ED200000E0120EA6EEECF04F0EECF05F0020E16
:100EE2000424E16E000E0520E26E6AC0E6FF6BC0CC
:100EF200E6FF010E0424E16E000E0520E26E6CC0D6
:100F0200E6FF04C0E9FF05C0EAFFEECF00F004C02F
:100F1200E1FF05C0E2FF400E0014E66E04C0E9FFE7
:100F220005C0EAFFEECF00F004C0E1FF05C0E2FF1A
:100F3200880E0010E66E6951000A1BE068C000F0DE
:100F4200000E016E0036009001362D0E0024026E56
:100F5200000E0120036E02C0E9FF03C0EAFF040E87
:100F6200EE18006E02C0E1FF03C0E2FF00C0E6FF20
:100F72001AD068C000F0000E016E003600900136F3
:100F8200290E0024026E000E0120036E02C0E9FF4A
:100F920003C0EAFF040EEE18006E02C0E1FF03C0B8
:100FA200E2FF00C0E6FF04C000F005C001F012003D
:100FB200760E5D6E160E5E6E000E5F6EEE0E3F6E6C
:100FC200160E406E000E416EE40E426E160E436E19
:100FD200000E446EC00E456E160E466E000E476E33
:020FE2001200FB
:100FE400000E0001691902E1000E681902E1016AAC
:100FF40009D068C0E9FF69C0EAFFEECF00F0016ADA
:0A10040000BE012A01C000F0120036
:0A100E00D08EA284A084F28E12009E
:1010180068C002F069C003F06BC000F06CC001F05A
:10102800010E00016B5F000E6C5B0050011009E0BF
:1010380002C0E1FF03C0E2FF6AC0E6FF024A032ADA
:04104800EBD71200D0
:10104C00160E616E9F0E0F015B6F7B0E606E1200B1
:10105C002DC0E9FF2EC0EAFFEECF00F000AE05D0A8
:10106C002DC0E1FF2EC0E2FFE66A4E6A586A276A7D
:10107C00286A266AA7DD030E0001726F000E736FDB
:10108C00746B756B766B776B6AEC02F00EDE12008C
:10109C002DC0E9FF2EC0EAFFEECF00F0000E00BC21
:1010AC00010E00016F6F040E2D18006E00C02DF0A4
:1010BC004C50080A0BE122C25CFF0F015C51000886
:1010CC0003E2100E4C6E02D0040E4C6E5850010A06
:1010DC002CE1020E2D24E16E000E2E20E26E280E65
:1010EC00006E020E016E00C0E6FF01C0E6FF85EC4B
:1010FC0003F04E50020A07E12DC0E1FF2EC0E2FFC3
:10110C00840EE66E11D000016F51000A07E12DC06C
:10111C00E1FF2EC0E2FFC80EE66E06D02DC0E1FF47
:0E112C002EC0E2FF880EE66E01D08CDC1200B1
:10113A00200E4C5C03E364B201D002D0006A1200B4
:10114A0048C068F049C069F048DF005218E167C03A
:10115A0068F0010E696F64C06AF065C06BF066C022
:10116A006CF092DE00C048F001C049F0010E002484
:10117A00E96E000E0120EA6EEECF00F01200006A5E
:02118A00120051
:10118C00740E0001726F000E736F746B756B766B5F
:10119C00776B6AEC02F06492609462A403D0FB0E4D
:0611AC006216FBD71200E1
:1011B200200E4C5C03E364B201D002D0006A12003C
:1011C2004AC068F04BC069F00CDF005217E167C0FB
:1011D20068F0696B64C06AF065C06BF066C06CF061
:1011E20057DE00C04AF001C04BF0010E0024E96E48
:1011F200000E0120EA6EEECF00F01200006A12002B
:101202004C50000A0AE1646A606A1FDFFFDE64B6BE
:0C12120002D06486FCD7010E4C6E120066
:10121E00C9DE4A6A4B6A486A496A0F015F6B626AA5
:10122E000EDF648C5C6B540E0001686F0F0E696FDD
:10123E006A6B010E6B6F000E6C6FE7DE649C646B65
:10124E00080E645D16E264C000F0000E016E0036FA
:10125E0000900136003600900136000E0024E16E3B
:10126E00020E0120E26EE66AE66AE66AE66A642B20
:10127E00E7D7160E0F01536F62A603D0F70E621654
:10128E00FBD7266A356A366A376A6498080E2D6E61
:0A129E00020E2E6E326A4C6A120036
:0412A800A1941200FB
:1012AC006084EF0E62166482750E0001726F000E80
:1012BC00736F746B756B766B776B6AEC02F0120064
:1012CC0072DE4A6A4B6A486A496A0F015F6B626A4E
:1012DC00B7DE648C5C6B540E0001726F0F0E736F73
:1012EC00746B010E756F000E766F50EC02F0649CFF
:1012FC006E6B080E6E5D16E26EC000F0000E016E95
:10130C00003600900136003600900136000E0024A5
:10131C00E16E020E0120E26EE66AE66AE66AE66AB1
:10132C006E2BE7D7160E0F01536F62A603D0F70E84
:10133C006216FBD7266A356A366A376A6498080ED5
:0C134C002D6E020E2E6E326A4C6A1200EA
:10135800FD0E5114016E026AFF0E0216000E0218ED
:1013680002E1000E01186CE17E0E5114016E01C0FD
:1013780003F00332039E03C000F0000E016E003636
:1013880000900136003600900136000E0024026EEF
:10139800020E0120036E02C05BF003C05CF002C0C5
:1013A80059F003C05AF0040E5918006E00C059F0E5
:1013B80002C0E9FF03C0EAFFEECF00F000C001F071
:1013C8003C0E01160132019E0132019E01500D0AA8
:1013D80035E1020E5B24E96E000E5C20EA6EEECF6A
:1013E80001F0EECF02F00250020A02E1280E0118C5
:1013F80023E1020E5B24E16E000E5C20E26E200EFB
:10140800E66E020EE66E00016E6B080E6E5D14E26B
:10141800200EE16E020EE26E6E51E126D8B0E22A8D
:10142800280EE96E020EEA6E6E51E926D8B0EA2A55
:10143800EECFE6FF6E2BE9D70DDE01D002DD0DD031
:10144800FD0E5114016E026AFF0E0216000E0218FC
:0C14580002E1040E011801E11DDE12008B
:101464000F0153A119D05BC0E9FF5CC0EAFFEECFC6
:1014740001F00150800A0FE12DC0E9FF2EC0EAFF00
:10148400EECF01F00150840A06E15BC0E1FF5CC0CD
:0E149400E2FF8C0EE66E5391DF0E6216120020
:1014A2003CC064F03DC065F0400E0001666F010E65
:0614B200676F7EDE1200F0
:1014B800010E316E60C03CF061C03DF062C056F074
:1014C80063C057F0A8DE010E016E0150010A01E168
:0414D80094DE12008C
:1014DC004C50010A07E164BA05D0626A60806088EA
:1014EC00020E4C6E62A405D060A403D0FB0E6216F3
:1014FC0047DE64A202D0D2DE120062A018D060A037
:10150C0016D0DEDE040E4C6E200E0201026F020EAF
:10151C00036F080E016F000E0015006E00C000F284
:10152C008C0E0011006E00C000F2FE0E621662A856
:10153C0005D060A803D0B4DEEF0E621662AC11D0F9
:10154C0060AC0FD0730E0001726F000E736F746B72
:10155C00756B010E766F000E776F6AEC02F0BF0EA2
:10156C00621662AA03D060AA01D076DF62A211D003
:10157C0060A20FD0FF0E0001726F3F0E736F746B81
:10158C00756B010E766F000E776F6AEC02F00F012F
:10159C005F6B040E4C5C02E281DE120060A625D06B
:1015AC0000016D6B040E6D5D20E262A61AD063CF54
:1015BC0051F0F70E6216780E5114016E0150000AAC
:1015CC0002E1C4DE0DD0720E0001726F000E736F5B
:1015DC00510E746F000E756F766B776B6AEC02F0C0
:0E15EC0001D003D000016D2BDDD758DE1200B8
:1015FA0060C064F061C065F062C066F0010E00016F
:06160A00676F96DD12007F
:10161000800E0001606F020E616FC00E626F020EDD
:10162000636F4ADF3EDF005201E1FCD73E6A400EA5
:101630003E5C14E2C00EE16E020EE26E3E50E12608
:10164000D8B0E22A800EE96E020EEA6E3E50E9261C
:10165000D8B0EA2AEECFE6FF3E2AE9D7C00E000155
:10166000606F020E616F400E626FC7DF005201E1D2
:06167000F5D7D8D7FFD723
:10167600090229000101008032090400000203006A
:101686000000092101010001222100070581034014
:09169600000107050103400001F9
:10169F000600FF0901A10119012940150026FF00CD
:1016AF0075089540810219012940750895409102EE
:0116BF00C06A
:1016C00012034800490044002000540065007300E4
:0216D0007400A4
:1016D20012010002000000083412010001000102A0
:0216E200000105
:0A16E4000A035400450053005400AF
:0416EE0004030904E4
:020000040030CA
:0E00000000321F1EFF8881FF03C003E0034093
:00000001FF
